{
  "contractName": "MyNFT",
  "abi": [
    {
      "inputs": [],
      "stateMutability": "nonpayable",
      "type": "constructor"
    },
    {
      "anonymous": false,
      "inputs": [
        {
          "indexed": true,
          "internalType": "address",
          "name": "owner",
          "type": "address"
        },
        {
          "indexed": true,
          "internalType": "address",
          "name": "approved",
          "type": "address"
        },
        {
          "indexed": true,
          "internalType": "uint256",
          "name": "tokenId",
          "type": "uint256"
        }
      ],
      "name": "Approval",
      "type": "event"
    },
    {
      "anonymous": false,
      "inputs": [
        {
          "indexed": true,
          "internalType": "address",
          "name": "owner",
          "type": "address"
        },
        {
          "indexed": true,
          "internalType": "address",
          "name": "operator",
          "type": "address"
        },
        {
          "indexed": false,
          "internalType": "bool",
          "name": "approved",
          "type": "bool"
        }
      ],
      "name": "ApprovalForAll",
      "type": "event"
    },
    {
      "anonymous": false,
      "inputs": [
        {
          "indexed": true,
          "internalType": "address",
          "name": "previousOwner",
          "type": "address"
        },
        {
          "indexed": true,
          "internalType": "address",
          "name": "newOwner",
          "type": "address"
        }
      ],
      "name": "OwnershipTransferred",
      "type": "event"
    },
    {
      "anonymous": false,
      "inputs": [
        {
          "indexed": true,
          "internalType": "address",
          "name": "from",
          "type": "address"
        },
        {
          "indexed": true,
          "internalType": "address",
          "name": "to",
          "type": "address"
        },
        {
          "indexed": true,
          "internalType": "uint256",
          "name": "tokenId",
          "type": "uint256"
        }
      ],
      "name": "Transfer",
      "type": "event"
    },
    {
      "inputs": [
        {
          "internalType": "address",
          "name": "to",
          "type": "address"
        },
        {
          "internalType": "uint256",
          "name": "tokenId",
          "type": "uint256"
        }
      ],
      "name": "approve",
      "outputs": [],
      "stateMutability": "nonpayable",
      "type": "function"
    },
    {
      "inputs": [
        {
          "internalType": "address",
          "name": "owner",
          "type": "address"
        }
      ],
      "name": "balanceOf",
      "outputs": [
        {
          "internalType": "uint256",
          "name": "",
          "type": "uint256"
        }
      ],
      "stateMutability": "view",
      "type": "function",
      "constant": true
    },
    {
      "inputs": [
        {
          "internalType": "uint256",
          "name": "tokenId",
          "type": "uint256"
        }
      ],
      "name": "getApproved",
      "outputs": [
        {
          "internalType": "address",
          "name": "",
          "type": "address"
        }
      ],
      "stateMutability": "view",
      "type": "function",
      "constant": true
    },
    {
      "inputs": [
        {
          "internalType": "address",
          "name": "owner",
          "type": "address"
        },
        {
          "internalType": "address",
          "name": "operator",
          "type": "address"
        }
      ],
      "name": "isApprovedForAll",
      "outputs": [
        {
          "internalType": "bool",
          "name": "",
          "type": "bool"
        }
      ],
      "stateMutability": "view",
      "type": "function",
      "constant": true
    },
    {
      "inputs": [],
      "name": "name",
      "outputs": [
        {
          "internalType": "string",
          "name": "",
          "type": "string"
        }
      ],
      "stateMutability": "view",
      "type": "function",
      "constant": true
    },
    {
      "inputs": [],
      "name": "owner",
      "outputs": [
        {
          "internalType": "address",
          "name": "",
          "type": "address"
        }
      ],
      "stateMutability": "view",
      "type": "function",
      "constant": true
    },
    {
      "inputs": [
        {
          "internalType": "uint256",
          "name": "tokenId",
          "type": "uint256"
        }
      ],
      "name": "ownerOf",
      "outputs": [
        {
          "internalType": "address",
          "name": "",
          "type": "address"
        }
      ],
      "stateMutability": "view",
      "type": "function",
      "constant": true
    },
    {
      "inputs": [],
      "name": "renounceOwnership",
      "outputs": [],
      "stateMutability": "nonpayable",
      "type": "function"
    },
    {
      "inputs": [
        {
          "internalType": "address",
          "name": "from",
          "type": "address"
        },
        {
          "internalType": "address",
          "name": "to",
          "type": "address"
        },
        {
          "internalType": "uint256",
          "name": "tokenId",
          "type": "uint256"
        }
      ],
      "name": "safeTransferFrom",
      "outputs": [],
      "stateMutability": "nonpayable",
      "type": "function"
    },
    {
      "inputs": [
        {
          "internalType": "address",
          "name": "from",
          "type": "address"
        },
        {
          "internalType": "address",
          "name": "to",
          "type": "address"
        },
        {
          "internalType": "uint256",
          "name": "tokenId",
          "type": "uint256"
        },
        {
          "internalType": "bytes",
          "name": "data",
          "type": "bytes"
        }
      ],
      "name": "safeTransferFrom",
      "outputs": [],
      "stateMutability": "nonpayable",
      "type": "function"
    },
    {
      "inputs": [
        {
          "internalType": "address",
          "name": "operator",
          "type": "address"
        },
        {
          "internalType": "bool",
          "name": "approved",
          "type": "bool"
        }
      ],
      "name": "setApprovalForAll",
      "outputs": [],
      "stateMutability": "nonpayable",
      "type": "function"
    },
    {
      "inputs": [
        {
          "internalType": "bytes4",
          "name": "interfaceId",
          "type": "bytes4"
        }
      ],
      "name": "supportsInterface",
      "outputs": [
        {
          "internalType": "bool",
          "name": "",
          "type": "bool"
        }
      ],
      "stateMutability": "view",
      "type": "function",
      "constant": true
    },
    {
      "inputs": [],
      "name": "symbol",
      "outputs": [
        {
          "internalType": "string",
          "name": "",
          "type": "string"
        }
      ],
      "stateMutability": "view",
      "type": "function",
      "constant": true
    },
    {
      "inputs": [
        {
          "internalType": "uint256",
          "name": "tokenId",
          "type": "uint256"
        }
      ],
      "name": "tokenURI",
      "outputs": [
        {
          "internalType": "string",
          "name": "",
          "type": "string"
        }
      ],
      "stateMutability": "view",
      "type": "function",
      "constant": true
    },
    {
      "inputs": [
        {
          "internalType": "address",
          "name": "from",
          "type": "address"
        },
        {
          "internalType": "address",
          "name": "to",
          "type": "address"
        },
        {
          "internalType": "uint256",
          "name": "tokenId",
          "type": "uint256"
        }
      ],
      "name": "transferFrom",
      "outputs": [],
      "stateMutability": "nonpayable",
      "type": "function"
    },
    {
      "inputs": [
        {
          "internalType": "address",
          "name": "newOwner",
          "type": "address"
        }
      ],
      "name": "transferOwnership",
      "outputs": [],
      "stateMutability": "nonpayable",
      "type": "function"
    },
    {
      "inputs": [
        {
          "internalType": "address",
          "name": "",
          "type": "address"
        }
      ],
      "name": "wills",
      "outputs": [
        {
          "internalType": "string",
          "name": "text",
          "type": "string"
        },
        {
          "internalType": "uint256",
          "name": "propertyID",
          "type": "uint256"
        }
      ],
      "stateMutability": "view",
      "type": "function",
      "constant": true
    },
    {
      "inputs": [
        {
          "internalType": "address",
          "name": "recipient",
          "type": "address"
        },
        {
          "internalType": "string",
          "name": "tokenURI",
          "type": "string"
        }
      ],
      "name": "mintNFT",
      "outputs": [
        {
          "internalType": "uint256",
          "name": "",
          "type": "uint256"
        }
      ],
      "stateMutability": "nonpayable",
      "type": "function"
    },
    {
      "inputs": [
        {
          "internalType": "address",
          "name": "from",
          "type": "address"
        },
        {
          "internalType": "address",
          "name": "to",
          "type": "address"
        },
        {
          "internalType": "uint256",
          "name": "tokenId",
          "type": "uint256"
        }
      ],
      "name": "transferNFT",
      "outputs": [],
      "stateMutability": "nonpayable",
      "type": "function"
    },
    {
      "inputs": [
        {
          "internalType": "uint256",
          "name": "tokenId",
          "type": "uint256"
        },
        {
          "internalType": "address",
          "name": "recepient",
          "type": "address"
        },
        {
          "internalType": "string",
          "name": "tokenURI",
          "type": "string"
        }
      ],
      "name": "updateNFT",
      "outputs": [],
      "stateMutability": "nonpayable",
      "type": "function"
    },
    {
      "inputs": [
        {
          "internalType": "address",
          "name": "creater",
          "type": "address"
        },
        {
          "internalType": "uint256",
          "name": "id",
          "type": "uint256"
        },
        {
          "internalType": "string",
          "name": "text",
          "type": "string"
        }
      ],
      "name": "createWill",
      "outputs": [],
      "stateMutability": "nonpayable",
      "type": "function"
    },
    {
      "inputs": [
        {
          "internalType": "address",
          "name": "creater",
          "type": "address"
        }
      ],
      "name": "viewWill",
      "outputs": [
        {
          "internalType": "uint256",
          "name": "",
          "type": "uint256"
        },
        {
          "internalType": "string",
          "name": "",
          "type": "string"
        }
      ],
      "stateMutability": "view",
      "type": "function",
      "constant": true
    }
  ],
  "bytecode": "0x60806040523480156200001157600080fd5b506040518060400160405280600a81526020017f4c616e64204465656473000000000000000000000000000000000000000000008152506040518060400160405280600481526020017f4c4448470000000000000000000000000000000000000000000000000000000081525081600090816200008f919062000365565b508060019081620000a1919062000365565b50505033600760006101000a81548173ffffffffffffffffffffffffffffffffffffffff021916908373ffffffffffffffffffffffffffffffffffffffff1602179055506200044c565b600081519050919050565b7f4e487b7100000000000000000000000000000000000000000000000000000000600052604160045260246000fd5b7f4e487b7100000000000000000000000000000000000000000000000000000000600052602260045260246000fd5b600060028204905060018216806200016d57607f821691505b60208210810362000183576200018262000125565b5b50919050565b60008190508160005260206000209050919050565b60006020601f8301049050919050565b600082821b905092915050565b600060088302620001ed7fffffffffffffffffffffffffffffffffffffffffffffffffffffffffffffffff82620001ae565b620001f98683620001ae565b95508019841693508086168417925050509392505050565b6000819050919050565b6000819050919050565b600062000246620002406200023a8462000211565b6200021b565b62000211565b9050919050565b6000819050919050565b620002628362000225565b6200027a62000271826200024d565b848454620001bb565b825550505050565b600090565b6200029162000282565b6200029e81848462000257565b505050565b5b81811015620002c657620002ba60008262000287565b600181019050620002a4565b5050565b601f8211156200031557620002df8162000189565b620002ea846200019e565b81016020851015620002fa578190505b6200031262000309856200019e565b830182620002a3565b50505b505050565b600082821c905092915050565b60006200033a600019846008026200031a565b1980831691505092915050565b600062000355838362000327565b9150826002028217905092915050565b6200037082620000eb565b67ffffffffffffffff8111156200038c576200038b620000f6565b5b62000398825462000154565b620003a5828285620002ca565b600060209050601f831160018114620003dd5760008415620003c8578287015190505b620003d4858262000347565b86555062000444565b601f198416620003ed8662000189565b60005b828110156200041757848901518255600182019150602085019450602081019050620003f0565b8683101562000437578489015162000433601f89168262000327565b8355505b6001600288020188555050505b505050505050565b613327806200045c6000396000f3fe608060405234801561001057600080fd5b50600436106101425760003560e01c8063715018a6116100b8578063b88d4fde1161007c578063b88d4fde14610360578063c360d57d1461037c578063c87b56dd146103ad578063e985e9c5146103dd578063eacabe141461040d578063f2fde38b1461043d57610142565b8063715018a6146102cd5780638da5cb5b146102d757806395d89b41146102f5578063a22cb46514610313578063a4cb92fa1461032f57610142565b806323b872dd1161010a57806323b872dd146101fd5780632bdf0a311461021957806342842e0e146102355780636352211e1461025157806369e9cae11461028157806370a082311461029d57610142565b806301ffc9a71461014757806306fdde0314610177578063081812fc1461019557806308eb7c9c146101c5578063095ea7b3146101e1575b600080fd5b610161600480360381019061015c9190611efc565b610459565b60405161016e9190611f44565b60405180910390f35b61017f61053b565b60405161018c9190611fef565b60405180910390f35b6101af60048036038101906101aa9190612047565b6105cd565b6040516101bc91906120b5565b60405180910390f35b6101df60048036038101906101da9190612231565b610613565b005b6101fb60048036038101906101f691906122a0565b6106af565b005b610217600480360381019061021291906122e0565b6107c6565b005b610233600480360381019061022e9190612333565b610826565b005b61024f600480360381019061024a91906122e0565b610848565b005b61026b60048036038101906102669190612047565b610868565b60405161027891906120b5565b60405180910390f35b61029b600480360381019061029691906122e0565b610919565b005b6102b760048036038101906102b291906123a2565b610929565b6040516102c491906123de565b60405180910390f35b6102d56109e0565b005b6102df6109f4565b6040516102ec91906120b5565b60405180910390f35b6102fd610a1e565b60405161030a9190611fef565b60405180910390f35b61032d60048036038101906103289190612425565b610ab0565b005b610349600480360381019061034491906123a2565b610ac6565b604051610357929190612465565b60405180910390f35b61037a60048036038101906103759190612536565b610b72565b005b610396600480360381019061039191906123a2565b610bd4565b6040516103a49291906125b9565b60405180910390f35b6103c760048036038101906103c29190612047565b610cf2565b6040516103d49190611fef565b60405180910390f35b6103f760048036038101906103f291906125e9565b610e04565b6040516104049190611f44565b60405180910390f35b61042760048036038101906104229190612629565b610e98565b60405161043491906123de565b60405180910390f35b610457600480360381019061045291906123a2565b610ed0565b005b60007f80ac58cd000000000000000000000000000000000000000000000000000000007bffffffffffffffffffffffffffffffffffffffffffffffffffffffff1916827bffffffffffffffffffffffffffffffffffffffffffffffffffffffff1916148061052457507f5b5e139f000000000000000000000000000000000000000000000000000000007bffffffffffffffffffffffffffffffffffffffffffffffffffffffff1916827bffffffffffffffffffffffffffffffffffffffffffffffffffffffff1916145b80610534575061053382610f53565b5b9050919050565b60606000805461054a906126b4565b80601f0160208091040260200160405190810160405280929190818152602001828054610576906126b4565b80156105c35780601f10610598576101008083540402835291602001916105c3565b820191906000526020600020905b8154815290600101906020018083116105a657829003601f168201915b5050505050905090565b60006105d882610fbd565b6004600083815260200190815260200160002060009054906101000a900473ffffffffffffffffffffffffffffffffffffffff169050919050565b81600960008573ffffffffffffffffffffffffffffffffffffffff1673ffffffffffffffffffffffffffffffffffffffff1681526020019081526020016000206001018190555080600960008573ffffffffffffffffffffffffffffffffffffffff1673ffffffffffffffffffffffffffffffffffffffff16815260200190815260200160002060000190816106a99190612891565b50505050565b60006106ba82610868565b90508073ffffffffffffffffffffffffffffffffffffffff168373ffffffffffffffffffffffffffffffffffffffff160361072a576040517f08c379a0000000000000000000000000000000000000000000000000000000008152600401610721906129d5565b60405180910390fd5b8073ffffffffffffffffffffffffffffffffffffffff16610749611008565b73ffffffffffffffffffffffffffffffffffffffff161480610778575061077781610772611008565b610e04565b5b6107b7576040517f08c379a00000000000000000000000000000000000000000000000000000000081526004016107ae90612a67565b60405180910390fd5b6107c18383611010565b505050565b6107d76107d1611008565b826110c9565b610816576040517f08c379a000000000000000000000000000000000000000000000000000000000815260040161080d90612af9565b60405180910390fd5b61082183838361115e565b505050565b61082f8361134e565b61083982846113a1565b610843838261157a565b505050565b61086383838360405180602001604052806000815250610b72565b505050565b6000806002600084815260200190815260200160002060009054906101000a900473ffffffffffffffffffffffffffffffffffffffff169050600073ffffffffffffffffffffffffffffffffffffffff168173ffffffffffffffffffffffffffffffffffffffff1603610910576040517f08c379a000000000000000000000000000000000000000000000000000000000815260040161090790612b65565b60405180910390fd5b80915050919050565b61092483838361115e565b505050565b60008073ffffffffffffffffffffffffffffffffffffffff168273ffffffffffffffffffffffffffffffffffffffff1603610999576040517f08c379a000000000000000000000000000000000000000000000000000000000815260040161099090612bf7565b60405180910390fd5b600360008373ffffffffffffffffffffffffffffffffffffffff1673ffffffffffffffffffffffffffffffffffffffff168152602001908152602001600020549050919050565b6109e86115e7565b6109f26000611665565b565b6000600760009054906101000a900473ffffffffffffffffffffffffffffffffffffffff16905090565b606060018054610a2d906126b4565b80601f0160208091040260200160405190810160405280929190818152602001828054610a59906126b4565b8015610aa65780601f10610a7b57610100808354040283529160200191610aa6565b820191906000526020600020905b815481529060010190602001808311610a8957829003601f168201915b5050505050905090565b610ac2610abb611008565b838361172b565b5050565b6009602052806000526040600020600091509050806000018054610ae9906126b4565b80601f0160208091040260200160405190810160405280929190818152602001828054610b15906126b4565b8015610b625780601f10610b3757610100808354040283529160200191610b62565b820191906000526020600020905b815481529060010190602001808311610b4557829003601f168201915b5050505050908060010154905082565b610b83610b7d611008565b836110c9565b610bc2576040517f08c379a0000000000000000000000000000000000000000000000000000000008152600401610bb990612af9565b60405180910390fd5b610bce84848484611897565b50505050565b60006060600960008473ffffffffffffffffffffffffffffffffffffffff1673ffffffffffffffffffffffffffffffffffffffff16815260200190815260200160002060010154600960008573ffffffffffffffffffffffffffffffffffffffff1673ffffffffffffffffffffffffffffffffffffffff168152602001908152602001600020600001808054610c69906126b4565b80601f0160208091040260200160405190810160405280929190818152602001828054610c95906126b4565b8015610ce25780601f10610cb757610100808354040283529160200191610ce2565b820191906000526020600020905b815481529060010190602001808311610cc557829003601f168201915b5050505050905091509150915091565b6060610cfd82610fbd565b6000600660008481526020019081526020016000208054610d1d906126b4565b80601f0160208091040260200160405190810160405280929190818152602001828054610d49906126b4565b8015610d965780601f10610d6b57610100808354040283529160200191610d96565b820191906000526020600020905b815481529060010190602001808311610d7957829003601f168201915b505050505090506000610da76118f3565b90506000815103610dbc578192505050610dff565b600082511115610df1578082604051602001610dd9929190612c53565b60405160208183030381529060405292505050610dff565b610dfa8461190a565b925050505b919050565b6000600560008473ffffffffffffffffffffffffffffffffffffffff1673ffffffffffffffffffffffffffffffffffffffff16815260200190815260200160002060008373ffffffffffffffffffffffffffffffffffffffff1673ffffffffffffffffffffffffffffffffffffffff16815260200190815260200160002060009054906101000a900460ff16905092915050565b6000610ea46008611972565b6000610eb06008611988565b9050610ebc84826113a1565b610ec6818461157a565b8091505092915050565b610ed86115e7565b600073ffffffffffffffffffffffffffffffffffffffff168173ffffffffffffffffffffffffffffffffffffffff1603610f47576040517f08c379a0000000000000000000000000000000000000000000000000000000008152600401610f3e90612ce9565b60405180910390fd5b610f5081611665565b50565b60007f01ffc9a7000000000000000000000000000000000000000000000000000000007bffffffffffffffffffffffffffffffffffffffffffffffffffffffff1916827bffffffffffffffffffffffffffffffffffffffffffffffffffffffff1916149050919050565b610fc681611996565b611005576040517f08c379a0000000000000000000000000000000000000000000000000000000008152600401610ffc90612b65565b60405180910390fd5b50565b600033905090565b816004600083815260200190815260200160002060006101000a81548173ffffffffffffffffffffffffffffffffffffffff021916908373ffffffffffffffffffffffffffffffffffffffff160217905550808273ffffffffffffffffffffffffffffffffffffffff1661108383610868565b73ffffffffffffffffffffffffffffffffffffffff167f8c5be1e5ebec7d5bd14f71427d1e84f3dd0314c0f7b2291e5b200ac8c7c3b92560405160405180910390a45050565b6000806110d583610868565b90508073ffffffffffffffffffffffffffffffffffffffff168473ffffffffffffffffffffffffffffffffffffffff16148061111757506111168185610e04565b5b8061115557508373ffffffffffffffffffffffffffffffffffffffff1661113d846105cd565b73ffffffffffffffffffffffffffffffffffffffff16145b91505092915050565b600073ffffffffffffffffffffffffffffffffffffffff168273ffffffffffffffffffffffffffffffffffffffff16036111cd576040517f08c379a00000000000000000000000000000000000000000000000000000000081526004016111c490612d7b565b60405180910390fd5b6111d8838383611a02565b6111e3600082611010565b6001600360008573ffffffffffffffffffffffffffffffffffffffff1673ffffffffffffffffffffffffffffffffffffffff16815260200190815260200160002060008282546112339190612dca565b925050819055506001600360008473ffffffffffffffffffffffffffffffffffffffff1673ffffffffffffffffffffffffffffffffffffffff168152602001908152602001600020600082825461128a9190612dfe565b92505081905550816002600083815260200190815260200160002060006101000a81548173ffffffffffffffffffffffffffffffffffffffff021916908373ffffffffffffffffffffffffffffffffffffffff160217905550808273ffffffffffffffffffffffffffffffffffffffff168473ffffffffffffffffffffffffffffffffffffffff167fddf252ad1be2c89b69c2b068fc378daa952ba7f163c4a11628f55a4df523b3ef60405160405180910390a4611349838383611a07565b505050565b61135781611a0c565b6000600660008381526020019081526020016000208054611377906126b4565b90501461139e5760066000828152602001908152602001600020600061139d9190611e33565b5b50565b600073ffffffffffffffffffffffffffffffffffffffff168273ffffffffffffffffffffffffffffffffffffffff1603611410576040517f08c379a000000000000000000000000000000000000000000000000000000000815260040161140790612e7e565b60405180910390fd5b61141981611996565b15611459576040517f08c379a000000000000000000000000000000000000000000000000000000000815260040161145090612eea565b60405180910390fd5b61146560008383611a02565b6001600360008473ffffffffffffffffffffffffffffffffffffffff1673ffffffffffffffffffffffffffffffffffffffff16815260200190815260200160002060008282546114b59190612dfe565b92505081905550816002600083815260200190815260200160002060006101000a81548173ffffffffffffffffffffffffffffffffffffffff021916908373ffffffffffffffffffffffffffffffffffffffff160217905550808273ffffffffffffffffffffffffffffffffffffffff16600073ffffffffffffffffffffffffffffffffffffffff167fddf252ad1be2c89b69c2b068fc378daa952ba7f163c4a11628f55a4df523b3ef60405160405180910390a461157660008383611a07565b5050565b61158382611996565b6115c2576040517f08c379a00000000000000000000000000000000000000000000000000000000081526004016115b990612f7c565b60405180910390fd5b806006600084815260200190815260200160002090816115e29190612891565b505050565b6115ef611008565b73ffffffffffffffffffffffffffffffffffffffff1661160d6109f4565b73ffffffffffffffffffffffffffffffffffffffff1614611663576040517f08c379a000000000000000000000000000000000000000000000000000000000815260040161165a90612fe8565b60405180910390fd5b565b6000600760009054906101000a900473ffffffffffffffffffffffffffffffffffffffff16905081600760006101000a81548173ffffffffffffffffffffffffffffffffffffffff021916908373ffffffffffffffffffffffffffffffffffffffff1602179055508173ffffffffffffffffffffffffffffffffffffffff168173ffffffffffffffffffffffffffffffffffffffff167f8be0079c531659141344cd1fd0a4f28419497f9722a3daafe3b4186f6b6457e060405160405180910390a35050565b8173ffffffffffffffffffffffffffffffffffffffff168373ffffffffffffffffffffffffffffffffffffffff1603611799576040517f08c379a000000000000000000000000000000000000000000000000000000000815260040161179090613054565b60405180910390fd5b80600560008573ffffffffffffffffffffffffffffffffffffffff1673ffffffffffffffffffffffffffffffffffffffff16815260200190815260200160002060008473ffffffffffffffffffffffffffffffffffffffff1673ffffffffffffffffffffffffffffffffffffffff16815260200190815260200160002060006101000a81548160ff0219169083151502179055508173ffffffffffffffffffffffffffffffffffffffff168373ffffffffffffffffffffffffffffffffffffffff167f17307eab39ab6107e8899845ad3d59bd9653f200f220920489ca2b5937696c318360405161188a9190611f44565b60405180910390a3505050565b6118a284848461115e565b6118ae84848484611b29565b6118ed576040517f08c379a00000000000000000000000000000000000000000000000000000000081526004016118e4906130e6565b60405180910390fd5b50505050565b606060405180602001604052806000815250905090565b606061191582610fbd565b600061191f6118f3565b9050600081511161193f576040518060200160405280600081525061196a565b8061194984611cb0565b60405160200161195a929190612c53565b6040516020818303038152906040525b915050919050565b6001816000016000828254019250508190555050565b600081600001549050919050565b60008073ffffffffffffffffffffffffffffffffffffffff166002600084815260200190815260200160002060009054906101000a900473ffffffffffffffffffffffffffffffffffffffff1673ffffffffffffffffffffffffffffffffffffffff1614159050919050565b505050565b505050565b6000611a1782610868565b9050611a2581600084611a02565b611a30600083611010565b6001600360008373ffffffffffffffffffffffffffffffffffffffff1673ffffffffffffffffffffffffffffffffffffffff1681526020019081526020016000206000828254611a809190612dca565b925050819055506002600083815260200190815260200160002060006101000a81549073ffffffffffffffffffffffffffffffffffffffff021916905581600073ffffffffffffffffffffffffffffffffffffffff168273ffffffffffffffffffffffffffffffffffffffff167fddf252ad1be2c89b69c2b068fc378daa952ba7f163c4a11628f55a4df523b3ef60405160405180910390a4611b2581600084611a07565b5050565b6000611b4a8473ffffffffffffffffffffffffffffffffffffffff16611e10565b15611ca3578373ffffffffffffffffffffffffffffffffffffffff1663150b7a02611b73611008565b8786866040518563ffffffff1660e01b8152600401611b95949392919061315b565b6020604051808303816000875af1925050508015611bd157506040513d601f19601f82011682018060405250810190611bce91906131bc565b60015b611c53573d8060008114611c01576040519150601f19603f3d011682016040523d82523d6000602084013e611c06565b606091505b506000815103611c4b576040517f08c379a0000000000000000000000000000000000000000000000000000000008152600401611c42906130e6565b60405180910390fd5b805181602001fd5b63150b7a0260e01b7bffffffffffffffffffffffffffffffffffffffffffffffffffffffff1916817bffffffffffffffffffffffffffffffffffffffffffffffffffffffff191614915050611ca8565b600190505b949350505050565b606060008203611cf7576040518060400160405280600181526020017f30000000000000000000000000000000000000000000000000000000000000008152509050611e0b565b600082905060005b60008214611d29578080611d12906131e9565b915050600a82611d229190613260565b9150611cff565b60008167ffffffffffffffff811115611d4557611d44612106565b5b6040519080825280601f01601f191660200182016040528015611d775781602001600182028036833780820191505090505b5090505b60008514611e0457600182611d909190612dca565b9150600a85611d9f9190613291565b6030611dab9190612dfe565b60f81b818381518110611dc157611dc06132c2565b5b60200101907effffffffffffffffffffffffffffffffffffffffffffffffffffffffffffff1916908160001a905350600a85611dfd9190613260565b9450611d7b565b8093505050505b919050565b6000808273ffffffffffffffffffffffffffffffffffffffff163b119050919050565b508054611e3f906126b4565b6000825580601f10611e515750611e70565b601f016020900490600052602060002090810190611e6f9190611e73565b5b50565b5b80821115611e8c576000816000905550600101611e74565b5090565b6000604051905090565b600080fd5b600080fd5b60007fffffffff0000000000000000000000000000000000000000000000000000000082169050919050565b611ed981611ea4565b8114611ee457600080fd5b50565b600081359050611ef681611ed0565b92915050565b600060208284031215611f1257611f11611e9a565b5b6000611f2084828501611ee7565b91505092915050565b60008115159050919050565b611f3e81611f29565b82525050565b6000602082019050611f596000830184611f35565b92915050565b600081519050919050565b600082825260208201905092915050565b60005b83811015611f99578082015181840152602081019050611f7e565b60008484015250505050565b6000601f19601f8301169050919050565b6000611fc182611f5f565b611fcb8185611f6a565b9350611fdb818560208601611f7b565b611fe481611fa5565b840191505092915050565b600060208201905081810360008301526120098184611fb6565b905092915050565b6000819050919050565b61202481612011565b811461202f57600080fd5b50565b6000813590506120418161201b565b92915050565b60006020828403121561205d5761205c611e9a565b5b600061206b84828501612032565b91505092915050565b600073ffffffffffffffffffffffffffffffffffffffff82169050919050565b600061209f82612074565b9050919050565b6120af81612094565b82525050565b60006020820190506120ca60008301846120a6565b92915050565b6120d981612094565b81146120e457600080fd5b50565b6000813590506120f6816120d0565b92915050565b600080fd5b600080fd5b7f4e487b7100000000000000000000000000000000000000000000000000000000600052604160045260246000fd5b61213e82611fa5565b810181811067ffffffffffffffff8211171561215d5761215c612106565b5b80604052505050565b6000612170611e90565b905061217c8282612135565b919050565b600067ffffffffffffffff82111561219c5761219b612106565b5b6121a582611fa5565b9050602081019050919050565b82818337600083830152505050565b60006121d46121cf84612181565b612166565b9050828152602081018484840111156121f0576121ef612101565b5b6121fb8482856121b2565b509392505050565b600082601f830112612218576122176120fc565b5b81356122288482602086016121c1565b91505092915050565b60008060006060848603121561224a57612249611e9a565b5b6000612258868287016120e7565b935050602061226986828701612032565b925050604084013567ffffffffffffffff81111561228a57612289611e9f565b5b61229686828701612203565b9150509250925092565b600080604083850312156122b7576122b6611e9a565b5b60006122c5858286016120e7565b92505060206122d685828601612032565b9150509250929050565b6000806000606084860312156122f9576122f8611e9a565b5b6000612307868287016120e7565b9350506020612318868287016120e7565b925050604061232986828701612032565b9150509250925092565b60008060006060848603121561234c5761234b611e9a565b5b600061235a86828701612032565b935050602061236b868287016120e7565b925050604084013567ffffffffffffffff81111561238c5761238b611e9f565b5b61239886828701612203565b9150509250925092565b6000602082840312156123b8576123b7611e9a565b5b60006123c6848285016120e7565b91505092915050565b6123d881612011565b82525050565b60006020820190506123f360008301846123cf565b92915050565b61240281611f29565b811461240d57600080fd5b50565b60008135905061241f816123f9565b92915050565b6000806040838503121561243c5761243b611e9a565b5b600061244a858286016120e7565b925050602061245b85828601612410565b9150509250929050565b6000604082019050818103600083015261247f8185611fb6565b905061248e60208301846123cf565b9392505050565b600067ffffffffffffffff8211156124b0576124af612106565b5b6124b982611fa5565b9050602081019050919050565b60006124d96124d484612495565b612166565b9050828152602081018484840111156124f5576124f4612101565b5b6125008482856121b2565b509392505050565b600082601f83011261251d5761251c6120fc565b5b813561252d8482602086016124c6565b91505092915050565b600080600080608085870312156125505761254f611e9a565b5b600061255e878288016120e7565b945050602061256f878288016120e7565b935050604061258087828801612032565b925050606085013567ffffffffffffffff8111156125a1576125a0611e9f565b5b6125ad87828801612508565b91505092959194509250565b60006040820190506125ce60008301856123cf565b81810360208301526125e08184611fb6565b90509392505050565b60008060408385031215612600576125ff611e9a565b5b600061260e858286016120e7565b925050602061261f858286016120e7565b9150509250929050565b600080604083850312156126405761263f611e9a565b5b600061264e858286016120e7565b925050602083013567ffffffffffffffff81111561266f5761266e611e9f565b5b61267b85828601612203565b9150509250929050565b7f4e487b7100000000000000000000000000000000000000000000000000000000600052602260045260246000fd5b600060028204905060018216806126cc57607f821691505b6020821081036126df576126de612685565b5b50919050565b60008190508160005260206000209050919050565b60006020601f8301049050919050565b600082821b905092915050565b6000600883026127477fffffffffffffffffffffffffffffffffffffffffffffffffffffffffffffffff8261270a565b612751868361270a565b95508019841693508086168417925050509392505050565b6000819050919050565b600061278e61278961278484612011565b612769565b612011565b9050919050565b6000819050919050565b6127a883612773565b6127bc6127b482612795565b848454612717565b825550505050565b600090565b6127d16127c4565b6127dc81848461279f565b505050565b5b81811015612800576127f56000826127c9565b6001810190506127e2565b5050565b601f82111561284557612816816126e5565b61281f846126fa565b8101602085101561282e578190505b61284261283a856126fa565b8301826127e1565b50505b505050565b600082821c905092915050565b60006128686000198460080261284a565b1980831691505092915050565b60006128818383612857565b9150826002028217905092915050565b61289a82611f5f565b67ffffffffffffffff8111156128b3576128b2612106565b5b6128bd82546126b4565b6128c8828285612804565b600060209050601f8311600181146128fb57600084156128e9578287015190505b6128f38582612875565b86555061295b565b601f198416612909866126e5565b60005b828110156129315784890151825560018201915060208501945060208101905061290c565b8683101561294e578489015161294a601f891682612857565b8355505b6001600288020188555050505b505050505050565b7f4552433732313a20617070726f76616c20746f2063757272656e74206f776e6560008201527f7200000000000000000000000000000000000000000000000000000000000000602082015250565b60006129bf602183611f6a565b91506129ca82612963565b604082019050919050565b600060208201905081810360008301526129ee816129b2565b9050919050565b7f4552433732313a20617070726f76652063616c6c6572206973206e6f7420746f60008201527f6b656e206f776e6572206e6f7220617070726f76656420666f7220616c6c0000602082015250565b6000612a51603e83611f6a565b9150612a5c826129f5565b604082019050919050565b60006020820190508181036000830152612a8081612a44565b9050919050565b7f4552433732313a2063616c6c6572206973206e6f7420746f6b656e206f776e6560008201527f72206e6f7220617070726f766564000000000000000000000000000000000000602082015250565b6000612ae3602e83611f6a565b9150612aee82612a87565b604082019050919050565b60006020820190508181036000830152612b1281612ad6565b9050919050565b7f4552433732313a20696e76616c696420746f6b656e2049440000000000000000600082015250565b6000612b4f601883611f6a565b9150612b5a82612b19565b602082019050919050565b60006020820190508181036000830152612b7e81612b42565b9050919050565b7f4552433732313a2061646472657373207a65726f206973206e6f74206120766160008201527f6c6964206f776e65720000000000000000000000000000000000000000000000602082015250565b6000612be1602983611f6a565b9150612bec82612b85565b604082019050919050565b60006020820190508181036000830152612c1081612bd4565b9050919050565b600081905092915050565b6000612c2d82611f5f565b612c378185612c17565b9350612c47818560208601611f7b565b80840191505092915050565b6000612c5f8285612c22565b9150612c6b8284612c22565b91508190509392505050565b7f4f776e61626c653a206e6577206f776e657220697320746865207a65726f206160008201527f6464726573730000000000000000000000000000000000000000000000000000602082015250565b6000612cd3602683611f6a565b9150612cde82612c77565b604082019050919050565b60006020820190508181036000830152612d0281612cc6565b9050919050565b7f4552433732313a207472616e7366657220746f20746865207a65726f2061646460008201527f7265737300000000000000000000000000000000000000000000000000000000602082015250565b6000612d65602483611f6a565b9150612d7082612d09565b604082019050919050565b60006020820190508181036000830152612d9481612d58565b9050919050565b7f4e487b7100000000000000000000000000000000000000000000000000000000600052601160045260246000fd5b6000612dd582612011565b9150612de083612011565b9250828203905081811115612df857612df7612d9b565b5b92915050565b6000612e0982612011565b9150612e1483612011565b9250828201905080821115612e2c57612e2b612d9b565b5b92915050565b7f4552433732313a206d696e7420746f20746865207a65726f2061646472657373600082015250565b6000612e68602083611f6a565b9150612e7382612e32565b602082019050919050565b60006020820190508181036000830152612e9781612e5b565b9050919050565b7f4552433732313a20746f6b656e20616c7265616479206d696e74656400000000600082015250565b6000612ed4601c83611f6a565b9150612edf82612e9e565b602082019050919050565b60006020820190508181036000830152612f0381612ec7565b9050919050565b7f45524337323155524953746f726167653a2055524920736574206f66206e6f6e60008201527f6578697374656e7420746f6b656e000000000000000000000000000000000000602082015250565b6000612f66602e83611f6a565b9150612f7182612f0a565b604082019050919050565b60006020820190508181036000830152612f9581612f59565b9050919050565b7f4f776e61626c653a2063616c6c6572206973206e6f7420746865206f776e6572600082015250565b6000612fd2602083611f6a565b9150612fdd82612f9c565b602082019050919050565b6000602082019050818103600083015261300181612fc5565b9050919050565b7f4552433732313a20617070726f766520746f2063616c6c657200000000000000600082015250565b600061303e601983611f6a565b915061304982613008565b602082019050919050565b6000602082019050818103600083015261306d81613031565b9050919050565b7f4552433732313a207472616e7366657220746f206e6f6e20455243373231526560008201527f63656976657220696d706c656d656e7465720000000000000000000000000000602082015250565b60006130d0603283611f6a565b91506130db82613074565b604082019050919050565b600060208201905081810360008301526130ff816130c3565b9050919050565b600081519050919050565b600082825260208201905092915050565b600061312d82613106565b6131378185613111565b9350613147818560208601611f7b565b61315081611fa5565b840191505092915050565b600060808201905061317060008301876120a6565b61317d60208301866120a6565b61318a60408301856123cf565b818103606083015261319c8184613122565b905095945050505050565b6000815190506131b681611ed0565b92915050565b6000602082840312156131d2576131d1611e9a565b5b60006131e0848285016131a7565b91505092915050565b60006131f482612011565b91507fffffffffffffffffffffffffffffffffffffffffffffffffffffffffffffffff820361322657613225612d9b565b5b600182019050919050565b7f4e487b7100000000000000000000000000000000000000000000000000000000600052601260045260246000fd5b600061326b82612011565b915061327683612011565b92508261328657613285613231565b5b828204905092915050565b600061329c82612011565b91506132a783612011565b9250826132b7576132b6613231565b5b828206905092915050565b7f4e487b7100000000000000000000000000000000000000000000000000000000600052603260045260246000fdfea26469706673582212207bf8bfb205609f433d83b20cdf44ed2afe2c0a7280bfc99572edbcda45031f5864736f6c63430008110033",
  "immutableReferences": {},
  "source": "// SPDX-License-Identifier: MIT\npragma solidity >=0.8.0 <0.9.0;\n\nimport \"@openzeppelin/contracts/token/ERC721/ERC721.sol\";\nimport \"@openzeppelin/contracts/utils/Counters.sol\";\nimport \"@openzeppelin/contracts/access/Ownable.sol\";\nimport \"@openzeppelin/contracts/token/ERC721/extensions/ERC721URIStorage.sol\";\n\ncontract MyNFT is ERC721URIStorage, Ownable {\n    using Counters for Counters.Counter;\n\n    Counters.Counter private _tokenIds;\n\n    struct will \n    {\n        string text;\n        uint256 propertyID;\n    }\n\n    mapping (address => will) public wills;\n\n    constructor() ERC721(\"Land Deeds\", \"LDHG\") {}\n\n    function mintNFT(address recipient, string memory tokenURI)\n        public\n        returns (uint256)\n    {\n        _tokenIds.increment();\n\n        uint256 newItemId = _tokenIds.current();\n        _mint(recipient, newItemId);\n        _setTokenURI(newItemId, tokenURI);\n        return newItemId;\n    }\n\n    function transferNFT(address from,address to,uint256 tokenId) public {\n        \n        _transfer(from, to, tokenId);\n    }\n\n    function updateNFT(uint256 tokenId,address recepient,string memory tokenURI) public{\n        _burn(tokenId);\n        _mint(recepient, tokenId);\n        _setTokenURI(tokenId, tokenURI);\n    }\n\n    function createWill(address creater,uint256 id,string memory text) public \n    { \n        wills[creater].propertyID = id;\n        wills[creater].text = text;\n\n    }\n\n    function viewWill(address creater) view public returns (uint256, string memory ) \n    {\n        return (wills[creater].propertyID,wills[creater].text);\n    }\n}\n\n\n",
  "sourcePath": "/Users/sahilpal/Downloads/VII SEM/Major Project/land-deed/contracts/MyNFT.sol",
  "compiler": {
    "name": "solc",
    "version": "0.8.17+commit.8df45f5f.Emscripten.clang"
  },
  "schemaVersion": "3.4.10",
  "updatedAt": "2022-11-13T04:53:37.864Z",
  "networkType": "ethereum",
  "devdoc": {
    "kind": "dev",
    "methods": {
      "approve(address,uint256)": {
        "details": "See {IERC721-approve}."
      },
      "balanceOf(address)": {
        "details": "See {IERC721-balanceOf}."
      },
      "getApproved(uint256)": {
        "details": "See {IERC721-getApproved}."
      },
      "isApprovedForAll(address,address)": {
        "details": "See {IERC721-isApprovedForAll}."
      },
      "name()": {
        "details": "See {IERC721Metadata-name}."
      },
      "owner()": {
        "details": "Returns the address of the current owner."
      },
      "ownerOf(uint256)": {
        "details": "See {IERC721-ownerOf}."
      },
      "renounceOwnership()": {
        "details": "Leaves the contract without owner. It will not be possible to call `onlyOwner` functions anymore. Can only be called by the current owner. NOTE: Renouncing ownership will leave the contract without an owner, thereby removing any functionality that is only available to the owner."
      },
      "safeTransferFrom(address,address,uint256)": {
        "details": "See {IERC721-safeTransferFrom}."
      },
      "safeTransferFrom(address,address,uint256,bytes)": {
        "details": "See {IERC721-safeTransferFrom}."
      },
      "setApprovalForAll(address,bool)": {
        "details": "See {IERC721-setApprovalForAll}."
      },
      "supportsInterface(bytes4)": {
        "details": "See {IERC165-supportsInterface}."
      },
      "symbol()": {
        "details": "See {IERC721Metadata-symbol}."
      },
      "tokenURI(uint256)": {
        "details": "See {IERC721Metadata-tokenURI}."
      },
      "transferFrom(address,address,uint256)": {
        "details": "See {IERC721-transferFrom}."
      },
      "transferOwnership(address)": {
        "details": "Transfers ownership of the contract to a new account (`newOwner`). Can only be called by the current owner."
      }
    },
    "version": 1
  },
  "userdoc": {
    "kind": "user",
    "methods": {},
    "version": 1
  }
}